S01C00005469636B546167536F66747761726542757273742E7372656306
S11300000C943C000C9459000C9459000C945C081A
S11300100C9459000C9459000C9444080C94590005
S11300200C946D080C9459000C9459000C945900CC
S11300300C9459000C9459000C9459000C945900D8
S11300400C9459000C9459000C9459000C945900C8
S11300500C9459000C9459000C9459000C945900B8
S11300600C9494080C9459000C9459000C94590065
S11300700C9459000C94590011241FBECFEFCDBF2E
S1130080DFE3DEBF18E3A0E0B8E3E9EBFEE302C080
S113009005900D92AA30B107D9F728E3AAE0B8E396
S11300A001C01D92A534B207E1F70E9447160C94D3
S11300B0F71C0C940000FC0120816181862F90E0E4
S11300C0A0E0B0E0DC0199278827B22B2381822BA2
S11300D02281BC01CD01722B0895E0E0F4E08EEDA5
S11300E0808387E3809320048FE08093400488E03A
S11300F0858B0895E0E4F4E080818D7F808389E03E
S1130100818B0895E0E4F4E0118A80818260808329
S11301100895E0E0F4E085898160858B08958091FD
S11301200A3890910B38A0910C38B0910D38019693
S1130130A11DB11D80930A3890930B38A0930C38FD
S1130140B0930D38089510920A3810920B3810921B
S11301500C3810920D38E0E0FAE081E082871182D9
S113016027EE33E026A337A38083789408952FB72E
S1130170F89460910A3870910B3880910C38909102
S11301800D382FBF0895F894E0E0FAE0128610824B
S11301907894089588E080934504089588E08093D6
S11301A04604089588E080930504089588E08093C8
S11301B00604089580E180932604089580E18093E5
S11301C0250489EF90E00197F1F700C0000008953D
S11301D00E94C300E0E2F4E0108A118AE0E5F0E056
S11301E08081897F8260808380818160808388951B
S11301F008959C01F894E0E4F1E091819111FDCF20
S11302001092480110924901E0E4F1E091819111CA
S1130210FDCFC901880F991F880F991FE0E4F1E011
S11302208287938781E0878391EC9083828378949B
S11302300895E0E0F6E081E0808388E0828384E64C
S1130240808783E3848780E18287828581608287D7
S1130250858180FFFDCF20911006309111064091D9
S1130260120650911306211531054105510521F45B
S113027021E030E040E050E01092000660E070E0E1
S113028080E490E00E940419C901089528ED81607A
S113029090E024BF8093610080E024BF80936000DD
S11302A0E0E6F0E0838180FDFDCF089580E2809355
S11302B02504089580E28093260408958823A9F0F4
S11302C0E0E2F4E090E29583AFE4B3EC1197F1F748
S11302D000C000009683813041F0AFE4B3EC119785
S11302E0F1F700C00000815071F708952F923F92FA
S11302F04F925F926F927F928F929F92AF92BF9232
S1130300CF92DF92EF92FF920F931F93CF93DF93DD
S11303106B017C01C00ED11EE21EF31EE1E0CE167D
S1130320D104E2E0EE06F10408F048C0611571055D
S1130330E1E08E07910510F0C1E501C0C0E5480178
S113034059011A016B017C018C2F0E94EC07182FB4
S11303508823A9F18D2D0E941D08182F882379F177
S11303608C2D0E941D08182F882349F18C2F0E9480
S1130370DA07182F882319F181E0881A9108A10857
S1130380B10891F0E101412C512C320181E00E942D
S1130390FD078993EFEF4E1A5E0A6E0A7E0A48142F
S11303A059046A047B0490F3E101C80DD91D80E06F
S11303B00E94FD0788830E943B0801C010E0812F42
S11303C0DF91CF911F910F91FF90EF90DF90CF902D
S11303D0BF90AF909F908F907F906F905F904F9061
S11303E03F902F9008950F931F93CF93DF931F9205
S11303F0CDB7DEB7198201E010E020E030E0AE01B5
S11304004F5F5F4F60E070E0CB010E94760191E0A6
S113041089270F90DF91CF911F910F9108952F920B
S11304203F924F925F926F927F928F929F92AF9280
S1130430BF92CF92DF92EF92FF920F931F93CF93CD
S1130440DF93CDB7DEB72A97CDBFDEBF2B013C01CA
S11304506A0148015901DC01CB01800F911FA21FE1
S1130460B31F0197A240B10508F0B1C081149104F3
S1130470A104B10409F4ADC000E717E10E831F83A2
S113048019821A821B821C82212C3324339403C0C8
S113049018851111A0C0C20199277101E81AF90A3F
S11304A021E0E216F20650F031E083169306A1042F
S11304B0B10480F4740101E0088710C0C701A0E012
S11304C0B0E088159905AA05BB0538F0740111E060
S11304D0188704C01886710101C01886411451049C
S11304E021E06206710410F081E501C080E50E94FC
S11304F0EC07882309F474C0852D0E941D08882305
S113050009F46EC0842D0E941D088D83882309F48C
S113051064C0E114F104D9F009811A810C0D1D1D88
S113052009871A8709811A810E0D1F1D0C0D1D1DC7
S1130530E985FA858191E987FA870E941D08882355
S113054009F44EC029853A852017310789F70E949E
S11305503B0883EC99E00197F1F700C0000008EC38
S113056010E009871A870E94F301882379F081EE4D
S113057094E00197F1F700C0000009851A85015045
S1130580110909871A87012B71F729C0A70160E0B7
S113059070E0841A950AA60AB70A440E551E661E10
S11305A0771E09811A812B813C81040F151F261F98
S11305B0371F09831A832B833C830E811F810150CB
S11305C011090E831F83012B09F062CF09C080E05B
S11305D007C080E005C08D8103C08D8101C080E02B
S11305E02A96CDBFDEBFDF91CF911F910F91FF906F
S11305F0EF90DF90CF90BF90AF909F908F907F90BF
S11306006F905F904F903F902F900895FC019081E0
S1130610990F9056292F220F220F920F218180EDDE
S1130620820F890F0895FC019081992371F0DF01F5
S11306301196908321E030E0691302C020E030E09D
S1130640E20FF31F9D919111F4CF108208958F92C0
S11306509F92AF92BF92CF92DF92EF92FF927C0172
S11306606EE20E941303C7010E947D196B017C0195
S113067020E432E44FE050E00E94041949015A0199
S113068060E472E48FE090E00E94F418A701960100
S1130690261B370B480B590BCA01B90126E030E081
S11306A040E050E00E94261969017A01A5019401F5
S11306B060EA76E881E090E00E94F4186C0D7D1DFC
S11306C08E1D9F1DFF90EF90DF90CF90BF90AF9055
S11306D09F908F9008954F925F926F927F928F9226
S11306E09F92AF92BF92CF92DF92EF92FF92CF93FD
S11306F0DF93CDB7DEB7E897CDBFDEBFFC01892B12
S113070009F4F1C16581603509F4F1C1C62ED12C1B
S113071020E3C21A28EFD20A4280842C912CA12C07
S1130720B12C208130E0A0E1BEE00E9445196D8328
S11307307E838F839887218130E0ACE3B0E00E9410
S1130740451969877A878B879C872381422E512C90
S1130750612C712C4481423028F419821A821B8244
S11307601C8208C06FE170E080E090E069837A83C6
S11307708B839C834330D0F19601329522952F7060
S113078023273F702327AEE3BAE00E94451920E9EE
S113079031E0DC01A29FC001A39F900DB29F900D98
S11307A01124C816D90639F1960136952795369540
S11307B02795ABE7B4E10E9445199695879554E6D1
S11307C0589F9001599F300D1124C216D306E1F0B1
S11307D0C60183709927892B01F16CE170E080E0F8
S11307E090E0698B7A8B8B8B9C8B1FC0198A1A8A39
S11307F01B8A1C8A1AC08DE190E0A0E0B0E0898BCE
S11308009A8BAB8BBC8B11C06CE170E080E090E004
S1130810698B7A8B8B8B9C8B08C08DE190E0A0E078
S1130820B0E0898B9A8BAB8BBC8B443028F41D8A47
S11308301E8A1F8A188E08C06FE170E080E090E085
S11308406D8B7E8B8F8B988F453028F4198E1A8E82
S11308501B8E1C8E08C08EE190E0A0E0B0E0898F72
S11308609A8FAB8FBC8F463028F41D8E1E8E1F8E40
S113087018A208C06FE170E080E090E06D8F7E8F79
S11308808F8F98A3473028F419A21AA21BA21CA286
S113089008C08EE190E0A0E0B0E089A39AA3ABA3E6
S11308A0BCA3483028F41DA21EA21FA218A608C08B
S11308B06FE170E080E090E06DA37EA38FA398A722
S11308C0493028F419A61AA61BA61CA608C08FE155
S11308D090E0A0E0B0E089A79AA7ABA7BCA74A30F4
S11308E028F41DA61EA61FA618AA08C06EE170E073
S11308F080E090E06DA77EA78FA798AB4B3028F4DB
S113090019AA1AAA1BAA1CAA08C08FE190E0A0E0A9
S1130910B0E089AB9AABABABBCAB4C3028F41DAAAE
S11309201EAA1FAA18AE08C02EE130E040E050E035
S11309302DAB3EAB4FAB58AFE12CF12CD701C60128
S1130940815B9740A109B109AC01BD01769567951A
S11309505795479576956795579547954D875E8743
S11309606F87788BC701B60161547640810991097C
S113097020E931E040E050E00E9404198D859E8515
S1130980AF85B889820F931FA41FB51F840D951DD1
S1130990A61DB71D29813A814B815C81820F931F6B
S11309A0A41FB51F49895A896B897C89840F951FB7
S11309B0A61FB71F2D893E894F89588D820F931F1B
S11309C0A41FB51F498D5A8D6B8D7C8D840F951F87
S11309D0A61FB71F2D8D3E8D4F8D58A1820F931FDB
S11309E0A41FB51F49A15AA16BA17CA1840F951F17
S11309F0A61FB71F2DA13EA14FA158A5820F931F7B
S1130A00A41FB51F49A55AA56BA57CA5840F951FE6
S1130A10A61FB71F2DA53EA54FA558A9820F931F4A
S1130A20A41FB51F49A95AA96BA97CA9840F951FB6
S1130A30A61FB71F2DA93EA94FA958AD280F391FCE
S1130A404A1F5B1F60E871E581E090E00E94F418A2
S1130A5069837A838B839C83D501C4018058904A2F
S1130A60AF4FB6474D805E806F807884480E591E24
S1130A706A1E7B1E89849A84AB84BC84840C951C76
S1130A80A61CB71CA701960160E873E381EE91E010
S1130A900E94F418860E971EA81EB91EC701B6013F
S1130AA06D5677408109910924E630E040E050E03A
S1130AB00E94041960E871E581E090E00E94F41856
S1130AC0A5019401261B370B480B590BDA01C90108
S1130AD029813A814B815C81280F391F4A1F5B1F92
S1130AE0CA01B90107C060E070E0CB0103C060E057
S1130AF070E0CB01E896CDBFDEBFDF91CF91FF90D0
S1130B00EF90DF90CF90BF90AF909F908F907F90A9
S1130B106F905F904F9008952F923F924F925F9203
S1130B206F927F928F929F92AF92BF92CF92DF92F9
S1130B30EF92FF920F931F93CF93DF93CDB7DEB75E
S1130B40A197CDBFDEBFFC019E012F5F3F4F80E226
S1130B50D9011D928A95E9F76115710509F469C1F6
S1130B609081992309F465C149A36B018F010F5F3B
S1130B701F4F80E0312C79016894222425F8442EFB
S1130B80512C5201F3E0AF0EB11C420124E0820E5D
S1130B90911C320135E0630E711CA6E04A0E511C13
S1130BA0943209F441C19C3209F026C13394B2E075
S1130BB03B1221C0F601108211821282F7010190CA
S1130BC00020E9F73197EE19FF09369708F40DC1B3
S1130BD0C7010E940603D6018C93CE0103960E949E
S1130BE00603F6018183CE0105960E940603D60111
S1130BF012968C93FAC0832D90E08A159B05A1F47C
S1130C00F60116821782108611868981882309F4D9
S1130C10ECC0C7010E942703D60116966D937D93FD
S1130C208D939C931997E1C08815990501F5F701F7
S1130C3001900020E9F7CF0102978E159F0509F076
S1130C40D4C089818F7D833509F0CFC0F6018681B8
S1130C509781A085B185B095A095909581959F4F7A
S1130C60AF4FBF4F86839783A087B187BEC08615D9
S1130C709705A1F4D6011A961D921D921D921C92FD
S1130C801D978981882309F4B0C0C7010E942703F6
S1130C90F6016287738784879587A7C084159505B5
S1130CA001F5F70101900020E9F7CF0102978E15B5
S1130CB09F0509F09AC089818F7D873509F095C019
S1130CC0F60182859385A485B585B095A095909508
S1130CD081959F4FAF4FBF4F82879387A487B58776
S1130CE084C0F7E03F1210C029A121117EC0D601B3
S1130CF01E961C921E9789818153823008F075C01C
S1130D00E1E01E96EC9371C0F9E03F1244C029A1C2
S1130D1021116BC0D60151961C928981882309F454
S1130D2064C06EE270E0C7010E94AB19009709F439
S1130D305CC0FC0101900020E9F731979F01281B5A
S1130D40390BC9012230310508F44FC0F701019075
S1130D500020E9F73197EE19FF099F012E5F3F4FFD
S1130D602817390748F0A2E0B0E0A81BB90BEE0D34
S1130D70FF1DEA0FFB1F10826EE2C7010E941303DE
S1130D80C7010E945F198F3F910511F00CF08FEF9E
S1130D90F601818B2AC0FAE03F1227C029A1213035
S1130DA021F5D60113961C92139714961C9214974E
S1130DB015961C92F70101900020E9F73197EE197E
S1130DC0FF09369790F0C7010E940603F60183835A
S1130DD0CE0103960E940603D60114968C93CE018D
S1130DE005960E940603F6018583D701E22D1D9224
S1130DF0EA95E9F780E018C09A3289F4F9A1F13054
S1130E00C1F4D6011E961C928981882391F0813405
S1130E1011F0843471F481E0F60186870AC0F70189
S1130E20E80FF11D90838F5FD8019D918D01911181
S1130E30B7CEA196CDBFDEBFDF91CF911F910F91A9
S1130E40FF90EF90DF90CF90BF90AF909F908F90E6
S1130E507F906F905F904F903F902F9008950F93E5
S1130E601F93CF938C0128EB3BE044EBB8018AE05D
S1130E700E945818C82F882309F466C064E270E001
S1130E80C8010E94AB19009771F3FC010190002086
S1130E90E9F73197E81BF90B399728F3FC01208116
S1130EA0243209F721812035F1F622812D34D9F637
S1130EB023812435C1F624812B34A9F625812033DE
S1130EC091F62681213379F68781803361F680910A
S1130ED001388F93809100388F930E94D3190F901B
S1130EE00F9028EB3BE044EBB8018AE00E945818CD
S1130EF0C82F882349F164E270E0C8010E94AB194D
S1130F00FC01009771F3DC010D900020E9F71197C3
S1130F10A81BB90B199728F38081843211F78181BA
S1130F208035F9F682818D34E1F683818435C9F602
S1130F3084818B34B1F68581803399F68681803340
S1130F4081F68781813369F68C2FCF911F910F91A0
S1130F500895E0EAF8E0168283E083838481886060
S1130F6084838581816085838581806C85830895F0
S1130F7088E893E1E0EAF8E02581222344F023E0C5
S1130F802A95F1F700000197B9F780E0089581E010
S1130F90089588E893E1E0EAF8E0258126FD08C099
S1130FA023E02A95F1F700000197B9F780E008954E
S1130FB081E008959091A5089370933059F0E0EA88
S1130FC0F8E094819B7F9483880F816087830E94DB
S1130FD0B807089580E008959091A5089370933020
S1130FE051F0E0EAF8E094819B7F9483880F878333
S1130FF00E94C907089580E00895CF939091A508B1
S113100093709230A9F4C82F0E94B807882391F0F6
S11310108091A808CC2331F0E0EAF8E094819B7F2A
S1131020948309C0E0EAF8E094819460948303C057
S113103080E001C080E0CF9108959091A50893705D
S11310409230A9F48093A80828E833E1E0EAF8E0B4
S11310508581958190718074892B59F483E08A95F8
S1131060F1F700002150310999F780E0089580E0FC
S1131070089581E00895E0EAF8E08481846084833F
S113108084818360848308951F920F920FB60F9218
S113109011248F93EF93FF9381E080931D38E0E058
S11310A0F4E0818580628187FF91EF918F910F90A9
S11310B00FBE0F901F9018951F920F920FB60F92AC
S11310C011248F9381E080931B38809343018F9187
S11310D00F900FBE0F901F9018951F920F920FB68E
S11310E00F9211242F933F934F935F936F937F93AA
S11310F08F939F93AF93BF93EF93FF930E948F00BF
S113110081E080930B0AFF91EF91BF91AF919F9182
S11311108F917F916F915F914F913F912F910F909C
S11311200FBE0F901F9018951F920F920FB60F923B
S113113011248F93EF93FF9381E080931C38E0E4B4
S1131140F4E0818582608187FF91EF918F910F9008
S11311500FBE0F901F9018950E94F9000E94E8009E
S113116010924001089520912E3830912F388091AB
S11311700738909108382817390730F081E02B3967
S1131180304118F480E0089581E00895CF92DF9211
S1131190EF92FF920F931F93CF93DF9340912238E6
S11311A0C091213830912438009123386091173848
S11311B0709118388091193890911A38311107C0FC
S11311C0011105C0473119F4CB3309F446C0611548
S11311D071058105910509F442C02CE3D0E0249FF8
S11311E0C00DD11D112410E0239F000D111D1124E9
S11311F02CE330E040E050E00E940419CA01B90138
S113120020EA35E040E050E00E940419C017D107FD
S113121090F46E01E12CF12C6C157D058E059F0573
S113122000F120E030E041E0601771078207930786
S1131230D8F040E019C06E01E12CF12C6C157D054D
S11312408E059F0580F420E030E041E060177107CF
S11312508207930748F040E007C040E005C040E043
S113126003C040E001C041E0842FDF91CF911F9182
S11312700F91FF90EF90DF90CF900895CF9382E18C
S113128090E00E94AA1CC82F83E190E00E94AA1C4F
S11312902C2F30E0322F2227282BC901885B9B405A
S11312A0833E944018F4822F932F02C088EB9BE076
S11312B0CF910895CF9384E190E00E94AA1CC82F97
S11312C085E190E00E94AA1C2C2F30E0322F2227C7
S11312D0282BC90101978E3F9F4318F4822F932F27
S11312E002C08CE390E0CF91089586E190E00E94E3
S11312F0AA1C96EF980F913F08F08EE10895CF93C2
S113130087E190E00E94AA1CC82F88E190E00E9427
S1131310AA1C2C2F30E0322F2227282BC9010A9730
S1131320853F9F4318F4822F932F02C088E592E0F3
S1131330CF91089589E190E00E94AA1C883108F0B9
S113134087E108958AE190E00E94AA1C8C3308F09A
S11313508EE108958BE190E00E94AA1C883108F088
S113136086E008958CE190E00E94AA1C8C3308F07A
S11313708EE108952F923F924F925F926F927F92E7
S11313808F929F92AF92BF92CF92DF92EF92FF9291
S11313900F931F93CF93DF93CDB7DEB76697CDBF7F
S11313A0DEBF809127388F93809126388F93809168
S11313B029388F93809128388F9380912D381F92EC
S11313C08F9380912C381F928F9380912B388F9319
S11313D080912A388F9382EA9AEB9F938F930E948D
S11313E0D31904E010E020E030E0AE014F5F5F4F1E
S11313F060E070E0CB010E947601182FCDBFDEBF04
S1131400882309F4FBC1CE0101960E945B006F871B
S1131410788B898B9A8B613071058240910508F035
S1131420ECC104E010E020E030E0AE014F5F5F4F1C
S113143064E070E080E090E00E947601182F882339
S113144009F4DCC1CE0101960E945B002B013C0132
S11314508FEF481658066806780619F4412C512C6B
S113146032016F85788989899A8960517109810966
S113147091092AE030E040E050E00E940419B22EC5
S1131480A32E942E852EC22ED32EE42EF52EC11417
S1131490D104E104F10459F0C301B201A70196019A
S11314A00E940419722E632E542E452E04C0712CF2
S11314B0612C512C412C04E010E020E030E0AE011E
S11314C04F5F5F4F6AE070E080E090E00E94760139
S11314D0182F882309F492C1CE0101960E945B0063
S11314E06F3FAFEF7A078A079A0719F460E070E05C
S11314F0CB01C114D104E104F10429F0A701960140
S11315000E94041904C020E030E040E050E05F9302
S11315104F933F932F934F925F926F927F928F924C
S11315209F92AF92BF9282ED9AEB9F938F930E940A
S1131530D31986E09BEB9F938F930E94D319CDBF61
S1131540DEBFC12CD12C76016894C4F8CB8ADC8A26
S1131550ED8AFE8AC12CD12C7601C394CB86DC861D
S1131560ED86FE860F2EF2E22F2EFBEB3F2EF02DA2
S113157009C04B8B5C8B6D8B7E8B04C04B8B5C8B5F
S11315806D8B7E8B0AE010E020E030E0AE014F5F0F
S11315905F4F6B897C898D899E890E947601182F03
S11315A0882309F42BC14C81898190E0A0E0B0E04C
S11315B04C015D01072E71E1880C991CAA1CBB1C0F
S11315C07A95D1F7702D9A81892F90E0A0E0B0E050
S11315D0072E79E0880F991FAA1FBB1F7A95D1F7B0
S11315E0702D88299929AA29BB29CB80D12CE12CDB
S11315F0F12CCC0CDD1CEE1CFF1C8C299D29AE2982
S1131600BF29842E912CA12CB12C689416F8B69481
S1131610A794979487941694D1F7882A992AAA2A8A
S1131620BB2A20E4821A24E5920A29E8A20AB10816
S11316302F818D8190E0A0E0B0E02C013D01032ECC
S11316403BE0440C551C661C771C3A95D1F7302DB1
S11316508E8190E0A0E0B0E0880F991FAA1FBB1F05
S1131660880F991FAA1FBB1F880F991FAA1FBB1F92
S113167084299529A629B7294F7750E060E070E0C6
S1131680032E33E1440F551F661F771F3A95D1F798
S1131690302D842B952BA62BB72B422E512C612C4D
S11316A0712C689414F8769467945794479416941C
S11316B0D1F7482A592A6A2A7B2A30E8431A38EA99
S11316C0530A32E1630A31E0730A2F718885C984B1
S11316D0D12CE12CF12CFE2CED2CDC2CCC24E82A92
S11316E08A85C82AF22AC301B20177203CF466270E
S11316F07727CB01641975098609970920EA36E82A
S113170041E050E00E9426199F938F937F936F933B
S1131710C301B20120EA36E841E050E00E942619F4
S11317205F934F933F932F93C501B401BB203CF4C7
S113173066277727CB01681979098A099B0920EA6A
S113174036E841E050E00E9426199F938F937F93DF
S11317506F93C501B40120EA36E841E050E00E94ED
S113176026195F934F933F932F9386E1C81A8EEB0C
S1131770D80A88E8E80A8FE9F80AFF92EF92DF9224
S1131780CF929E859F93AD85AF93BC85BF93CB8449
S1131790CF923F922F920E94D3194B895C896D8915
S11317A07E89465F5F4F6F4F7F4F8B899C89AD89E0
S11317B0BE894496A11DB11DCDBFDEBFCF84D8889C
S11317C0E988FA88C816D906EA06FB06B8F08B85BC
S11317D09C85AD85BE850196A11DB11D8B879C8717
S11317E0AD87BE87893C9105A105B10508F4C1CE3A
S11317F08091080485FDC2CE01C010E0812F669659
S1131800CDBFDEBFDF91CF911F910F91FF90EF907D
S1131810DF90CF90BF90AF909F908F907F906F900C
S11318205F904F903F902F90089580E49BEB9F939F
S11318308F930E94D3190E94BA090F900F908111BF
S113184008C081E59BEB9F938F930E94D3190F905F
S11318500F9089E59BEB9F938F930E94D3190F9070
S11318600F9008952F923F924F925F926F927F92C2
S11318708F929F92AF92BF92CF92DF92EF92FF929C
S11318800F931F93CF93DF93CDB7DEB7AC97CDBF44
S1131890DEBF0E94111885E00E945E010E94DE00F6
S11318A00E94A90781E08093093888E69BEB9F9307
S11318B08F930E94D3190E94150C0F900F900F2E36
S11318C0612CF1E17F2EF02D0F2EF9E74F2EFBEB6B
S11318D05F2EF02D0F2EFFE92F2EFBEB3F2EF02D68
S11318E00F2EFAE38F2EFCEB9F2EF02D0F2EFAE530
S11318F0EF2EFCEBFF2EF02D0F2EF0E9AF2EFCEBBC
S1131900BF2EF02D0F2EFAECCF2EFCEBDF2EF02D98
S1131910F30124859385838130911F381F923F936F
S113192030912F383F9330912E383F931F922F934D
S11319301F929F931F928F931F928BEC8F935F92B2
S11319404F920E94D31980911E381F928F938091D9
S113195020381F928F93809103388F93809102389F
S11319608F93809104381F928F93809106388F93C0
S1131970809105388F93809108388F938091073830
S11319808F933F922F920E94D31980912438CDBF18
S1131990DEBF811115C090912338911111C090912F
S11319A02238973169F4909121389B3349F48EE2BF
S11319B09CEB9F938F930E94D3190F900F9014C0A8
S11319C0909121381F929F93909122381F929F9358
S11319D0909123381F929F931F928F939F928F927F
S11319E00E94D319CDBFDEBFFF92EF920E94D3199C
S11319F0BF92AF920E94D319DF92CF920E94D31963
S1131A0020E43CE940E2BE016F5F7F4F8DE00E941D
S1131A1058180F900F900F900F900F900F90811106
S1131A2009C082E19DEB9F938F930E94D3190F907D
S1131A300F907AC38981803319F40E94150C68CF02
S1131A40813309F06AC08FEF89A38AA38BA38CA387
S1131A508EE49DEB9F938F930E94D31904E010E0D2
S1131A6020E030E0AE014F5D5F4F60E070E0CB01FD
S1131A700E940F020F900F90811108C083E59DEB27
S1131A809F938F930E94D3190F900F9004E010E05E
S1131A9020E030E0AE014F5D5F4F64E070E080E035
S1131AA090E00E940F02811108C023E53DEB3F93B3
S1131AB02F930E94D3190F900F9004E010E020E0C0
S1131AC030E0AE014F5D5F4F6AE070E080E090E08F
S1131AD00E940F02811108C0E3E5FDEBFF93EF9331
S1131AE00E94D3190F900F9010922D3810922C3819
S1131AF010922A3810922B381092283810922938D4
S1131B0010922638109227388BE59DEB9F938F9384
S1131B100E94D3190F900F90FBCE823309F069C055
S1131B2080E18F938AE98F938BE08F9388EB8F9377
S1131B3082E69DEB9F938F930E94D31920E63AEEA1
S1131B4040E2BE016F5F7F4F8DE00E9458180F90F6
S1131B500F900F900F900F900F90811109C087E79D
S1131B609DEB9F938F930E94D3190F900F90DCC22B
S1131B70CE0101960E945F198DA3082F192FC80169
S1131B80885B9B40833E944048F083E59DEB9F93A4
S1131B908F930E94D3190F900F90BACE612F82E1D8
S1131BA090E00E94B21C6DA183E190E00E94B21CFF
S1131BB087EA91E60197F1F700C000000E943E0910
S1131BC00817190749F0E3E5FDEBFF93EF930E9433
S1131BD0D3190F900F909CCE81E89DEB9F938F9328
S1131BE00E94D31900930738109308380F900F9070
S1131BF08FCE833309F067C08FE38F938EEF8F937B
S1131C001F9281E08F9386E89DEB9F938F930E94B0
S1131C10D31920E63AEE40E2BE016F5F7F4F8DE0BC
S1131C200E9458180F900F900F900F900F900F90E4
S1131C30811109C087E79DEB9F938F930E94D3196D
S1131C400F900F9071C2CE0101960E945F198DA36F
S1131C50082F192FC80101978E3F9F4348F023E5B1
S1131C603DEB3F932F930E94D3190F900F9050CECA
S1131C70612F84E190E00E94B21C6DA185E190E0A7
S1131C800E94B21CE7EAF1E63197F1F700C00000C8
S1131C900E945A090817190749F023E53DEB3F93C1
S1131CA02F930E94D3190F900F9032CEE1E8FDEBF1
S1131CB0FF93EF930E94D3190093053810930638CD
S1131CC00F900F9025CE843309F067C01F928AEFDE
S1131CD08F931F928AE08F938BEB9DEB9F938F934F
S1131CE00E94D3191F9289E08F938BED9DEB9F93F4
S1131CF08F930E94D31920E63AEE40E2BE016F5F53
S1131D007F4F8DE00E945818CDBFDEBF811109C0FE
S1131D1087E79DEB9F938F930E94D3190F900F90A9
S1131D2003C2CE0101960E945F19082F192F980152
S1131D302A503109213F310548F023E53DEB3F931B
S1131D402F930E94D3190F900F90E2CD682F86E154
S1131D5090E00E94B21CE7EAF1E63197F1F700C087
S1131D6000000E9475098DA390E00817190749F037
S1131D7023E53DEB3F932F930E94D3190F900F90CF
S1131D80C7CDE1E8FDEBFF93EF930E94D3193DA18A
S1131D90309304380F900F90BBCD853309F067C0A2
S1131DA08FE38F938EEF8F931F928AE08F9382E05D
S1131DB09EEB9F938F930E94D31920E63AEE40E264
S1131DC0BE016F5F7F4F8DE00E9458180F900F90F7
S1131DD00F900F900F900F90811109C087E79DEB32
S1131DE09F938F930E94D3190F900F909DC1CE01A2
S1131DF001960E945F198DA3082F192FC8010A9715
S1131E00853F9F4348F023E53DEB3F932F930E948A
S1131E10D3190F900F907CCD612F87E190E00E9441
S1131E20B21C6DA188E190E00E94B21CE7EAF1E6E1
S1131E303197F1F700C000000E947F0908171907C5
S1131E4049F023E53DEB3F932F930E94D3190F9064
S1131E500F905ECDE1E8FDEBFF93EF930E94D31961
S1131E6000930238109303380F900F9051CD8633AE
S1131E7009F0CAC08AE29EEB9F938F930E94D31904
S1131E8020E63AEE40E2BE016F5F7F4F8DE00E9494
S1131E9058180F900F90811109C087E79DEB9F930D
S1131EA08F930E94D3190F900F903EC1CE010196DB
S1131EB00E945F198C019C013695279536952795CC
S1131EC0ABE7B4E10E944519969587958DA39EA32F
S1131ED08831B0F4980136952795369527950E9458
S1131EE045199695879544E6489F9001499F300D82
S1131EF01124C801821B930B8FA398A78C3348F03D
S1131F00E3E5FDEBFF93EF930E94D3190F900F903D
S1131F10FFCC86E59EEB9F938F930E94D31920E616
S1131F203AEE40E2BE016F5F7F4F8DE00E94581889
S1131F300F900F90811109C087E79DEB9F938F93BA
S1131F400E94D3190F900F90EFC0CE0101960E940A
S1131F505F19AC019C013695279536952795ABE71B
S1131F60B4E10E9445199695879589A79AA7883167
S1131F70C8F49A0136952795369527950E944519F8
S1131F809695879564E6689F9001699F300D1124AA
S1131F90CA01821B930B8BA79CA78C3318F40417DC
S1131FA0150749F4E3E5FDEBFF93EF930E94D31982
S1131FB00F900F90ADCC6DA189E190E00E94B21C0E
S1131FC06FA18AE190E00E94B21C69A58BE190E0C8
S1131FD00E94B21C6BA58CE190E00E94B21C81E8C7
S1131FE09DEB9F938F930E94D319FDA1F093243806
S1131FF02FA12093233839A5309322388BA58093C1
S113200021380F900F9084CC8733A9F48091203825
S1132010882341F060E08DE190E00E94B21C1092B0
S1132020203876CC61E08DE190E00E94B21C81E022
S1132030809320386DCC883309F057C0E3E8FEEB79
S1132040FF93EF930E94D31920E63AEE40E2BE01DB
S11320506F5F7F4F8DE00E9458180F900F90811191
S113206009C087E79DEB9F938F930E94D3190F902C
S11320700F905AC0CE0101960E945F19082F192FA4
S11320800B3F110548F083E59DEB9F938F930E94CE
S1132090D3190F900F903CCC682F8FE190E00E94F1
S11320A0B21C87EA91E60197F1F700C000008FE1C6
S11320B090E00E94AA1C8DA390E00817190749F02C
S11320C0E3E5FDEBFF93EF930E94D3190F900F907C
S11320D01FCC81E89DEB9F938F930E94D319FDA1A0
S11320E0F0931E380F900F9013CC8236A9F4809190
S11320F01F38882341F060E08EE190E00E94B21C1A
S113210010921F3805CC61E08EE190E00E94B21C71
S113211081E080931F38FCCB82E19DEB9F938F93EA
S11321200E94D3190F900F900E94DA0083E294EF7B
S11321300197F1F700C000000E9449180E943D1861
S1132140AC96CDBFDEBFDF91CF911F910F91FF9071
S1132150EF90DF90CF90BF90AF909F908F907F9043
S11321606F905F904F903F902F9008958091080456
S113217085FF12C00DC0908595FD0CC0A7EAB1E69D
S11321801197F1F700C000008150A9F781E008958C
S113219080E0089580E0089587EA91E60197F1F7D9
S11321A000C000008DE1E0E0F4E0E5CF4F925F92E3
S11321B06F927F928F929F92AF92BF92CF92DF9253
S11321C0FF920F931F93CF93DF93CDB7DEB7629740
S11321D0CDBFDEBF6C01F62E04E010E020E030E05D
S11321E0AE014F5F5F4F60E070E0CB010E9476016B
S11321F0882309F449C1CE0101960E945B004B017A
S11322005C01DC01CB014097A109B109813F9F4FDB
S1132210A140B10528F0812C912C5401689484F8D4
S1132220FF2011F104E010E020E030E0AE014F5F48
S11322305F4F64E070E080E090E00E9476018823C4
S113224009F424C1CE0101960E945B006B877C8750
S11322508D879E876F3F7F4F8F4F9F4F49F41B861B
S11322601C861D861E8604C01B861C861D861E8633
S113227004E010E020E030E0AE014F5F5F4F6AE021
S113228070E080E090E00E947601882309F400C1A8
S1132290CE0101960E945B006F87788B898B9A8BA5
S11322A06F3F7F4F8F4F9F4F21F41F86188A198AE3
S11322B01A8AC6010E946B036A3E51E4750757E708
S11322C0850750E6950738F0AB01BC014A5E5144DE
S11322D06747704603C040E050E0BA01D601169645
S11322E00D911D912D913C911997005C1B4A264735
S11322F03F4FD901C801072E71E1B695A79597956F
S113230087957A95D1F7702D8983D901C801072E55
S113231079E0B695A795979587957A95D1F7702D1D
S11323208A83D901C801B695A795979587958B831C
S1132330F60182859385A485B58580589745AD4E71
S1132340BE4F0795002707952C013D01032E33E16D
S113235076946794579447943A95D1F7302D04298D
S11323600C838C019D010F2EFBE036952795179564
S11323700795FA95D1F7F02D0D838C019D01689492
S113238012F836952795179507951694D1F70E836D
S11323908295880F807E872B8F83688759874A8729
S11323A024013501FAE04F0E511C611C711C21E01F
S11323B04216510422E06206710408F06BC00AE080
S11323C010E020E030E0AE014F5F5F4FC501B40183
S11323D00E940F02882309F45FC079826A825B82BB
S11323E04C8204E010E020E030E0AE014F5F5F4F2C
S11323F060E070E0CB010E940F02882309F44EC014
S1132400FF2011F1D6011F968D919C9150972B8539
S11324103C854D855E85280F391F411D511DDA010C
S1132420C901B983AA839B832C8304E010E020E0D4
S113243030E0AE014F5F5F4F64E070E080E090E019
S11324400E940F02882361F1D60151968C914F842A
S1132450588869887A88480E511C611C711C7982DD
S11324606A825B824C8204E010E020E030E0AE013E
S11324704F5F5F4F6AE070E080E090E00E940F02DF
S1132480882381F082E00FC080E00DC080E00BC0A3
S113249080E009C081E007C080E005C080E003C09F
S11324A080E001C080E06296CDBFDEBFDF91CF91B6
S11324B01F910F91FF90DF90CF90BF90AF909F90AE
S11324C08F907F906F905F904F9008952F923F92DE
S11324D04F925F926F927F928F929F92AF92BF9230
S11324E0CF92DF92EF92FF920F931F93CF93DF93DC
S11324F0CDB7DEB7CB5CD109CDBFDEBF0E94A30050
S1132500FE01319682E1DF011D928A95E9F7C090C0
S11325100538D0900638B1E0C553DF4FB883CB5CA3
S1132520D040E6E0CE16D10428F4C553DF4F18821C
S1132530CB5CD0400E94DE000E94A9070E94CA0022
S11325400E94D2000E94F517CE0143960E942F07E5
S11325508111F1C2F6C2E12C412C512C3201212C03
S1132560312C0F2EFFE98F2EFEEB9F2EF02DA12C88
S11325706894BB24B2F808EB1BE024EBAE014D5E7B
S11325805F4F6AE082E00E949A18882309F419C315
S11325900E94111864E270E0CE0143960E94AB19C8
S11325A08C01009709F44EC0FC0101900020E9F76A
S11325B03197E81BF90B379708F446C0DC011396F2
S11325C08C911397823599F414968C9114978D34C9
S11325D009F515968C918334F9F441E0BE016F5FDF
S11325E07F4FC8010E948C05FF24F3941CC08734DC
S11325F0A9F4F8018481873499F48581813491F4B4
S113260040E0BE016F5F7F4FC8010E948C05FF242C
S1132610F39409C0F12C07C0F12C05C0F12C03C0C0
S1132620F12C01C0F12C0E94B7001F930F939F93CC
S11326308F937F936F939F928F920E94D319CDBFF4
S1132640DEBF03C0F12C01C0F12CF8010190002081
S1132650E9F73197E01BF10B3297C0F164E270E0C7
S1132660C80101960E94AB19009781F1FC01019009
S11326700020E9F73197E81BF90B379738F1DC01B3
S113268013962C911397223589F414962C91149750
S11326902D34E1F415962C912334C1F441E0BE01AC
S11326A06F5F7F4F0E948C05F39410C0273471F440
S11326B0FC012481273451F42581213439F440E08C
S11326C0BE016F5F7F4F0E948C05F3940E94B70098
S11326D028EE33E040E050E00E940419C953DF4F74
S11326E0288339834A835B83C75CD040DA01C901FC
S11326F0293731054105510580F02E81203569F4D3
S1132700298121110AC02A81233038F480912C3880
S11327108F5F80932C3817E05BC2F6E0CF16D104AC
S113272060F08D329140A105B10538F080912D38CB
S11327308F5F80932D3817E04BC232E0F31215C03F
S1132740CE0101960E946B03672B682B692B69F0FD
S1132750CE0101960E946B0360931738709318386A
S11327608093193890931A3817C080911738909134
S11327701838A0911938B0911A380097A105B105FD
S113278059F00196A11DB11D809317389093183804
S1132790A0931938B0931A388F85813009F0C0C0DE
S11327A02114310431F4C953DF4F28803980C75CC8
S11327B0D0401091043886E0C816D10408F4C7C18B
S11327C080912538882309F4D1C18EE190E010E08E
S11327D0CFC1A0E0B0E0C953DF4F488159816A817D
S11327E07B81C75CD0404219530961097109841780
S11327F09507A607B70708F08EC0C953DF4FA88115
S1132800B981C75CD040A88BB98B809125388823C7
S113281021F0A0932638B09327381092093880917C
S11328202038882309F45CC08091123890911338C1
S1132830A0911438B09115380097A105B105C9F4D9
S11328408F819885A985BA8580931238909313381F
S1132850A0931438B09315388B859C85AD85BE85BF
S113286080930E3890930F38A0931038B09311389A
S113287037C04F81588569857A85841B950BA60BD3
S1132880B70BAC01BD013AF444275527BA01481BE4
S1132890590B6A0B7B0B4C3251406105710504F5F1
S11328A080910E3890910F38A0911038B091113862
S11328B04B855C856D857E85841B950BA60BB70BBC
S11328C0AC01BD013AF444275527BA01481B590B02
S11328D06A0B7B0B4C325140610571050CF473C1DA
S11328E0C553DF4F6881CB5CD040CE0101960E9476
S11328F0D61010922538813009F484C1882309F454
S113290064C136E0C316D10430F0E39480911E38DC
S1132910E81608F05CC18FEF481A580A680A780A6A
S11329200E94C6088823B1F180910938882371F088
S1132930E0E2F4E080E285839FEFA4E3BCE0915001
S1132940A040B040E1F700C000008683109209382F
S11329500E94CE000E9430180E9449180E943D181F
S11329600E94DA0081E090E00E94F900809117381B
S113297090911838A0911938B0911A380196A11D78
S1132980B11D8093173890931838A0931938B093D9
S11329901A3866C10E94190180932E3890932F38FB
S11329A084559B408734954008F0EAC0D5011896B9
S11329B08C91189785FD0AC0EFE4F3EC3197F1F799
S11329C000C0000018968C9185FF0DC10E94F51778
S11329D080911F38811105C080910938882309F43A
S11329E0CACD0E9456018E81803539F4EFE2F5E7B5
S11329F03197F1F700C0000006C08BE49DE1019718
S1132A00F1F700C000000E945A01B5CD0E94CE002B
S1132A100E9430180E9449180E943D180E94DA0052
S1132A2014E02FC0CC96A11DB11D8093173890934C
S1132A301838A0931938B0931A388CE390E00E94A8
S1132A40F9000EC185E0809330380E94D60081E001
S1132A5090E00E94F90010921738109218381092E2
S1132A60193810921A38FCC081E090E00E94F900F5
S1132A7010921738109218381092193810921A3888
S1132A80EFC08AEF810F823080F5E0900538F09036
S1132A900638173039F0E114F10451F4EE24E394CC
S1132AA0F12C06C00F2EF4E8EF2EF3E0FF2EF02DEC
S1132AB0C7010E94F9008091173890911838A091AD
S1132AC01938B0911A380097A105B10509F4C8C0A6
S1132AD08E0D9F1DA11DB11D80931738909318383A
S1132AE0A0931938B0931A38BBC0809128389091BC
S1132AF02938019680932838909329388091173883
S1132B0090911838A0911938B0911A380097A105FE
S1132B10B10561F0885A9D4FAF4FBF4F809317386E
S1132B2090931838A0931938B0931A3888E592E036
S1132B300E94F90095C096E0C916D10408F00BCDA7
S1132B407DC0A6E0CA16D10408F47DC05FCF2091F1
S1132B5005383091063840E050E0C301B2010E94CC
S1132B600419672B682B692B39F0D5CE89E090E0E6
S1132B702A89211171C02DCE8A89811169C0CBCED9
S1132B800E94CE000E9430180E9449180E943D18ED
S1132B900E94DA0080912A3890912B380196809314
S1132BA02A3890932B388091173890911838A09137
S1132BB01938B0911A380097A105B10509F032CF40
S1132BC03CCF14E005C018E003C014E001C016E0D7
S1132BD00E94CE000E9430180E9449180E943D189D
S1132BE00E94DA004ECF0E94CE000E9430180E944C
S1132BF049180E943D180E94DA000E94B610811103
S1132C0021CF32CF0E94CE000E9430180E94491872
S1132C100E943D180E94DA0083E0809330380E94BD
S1132C20D60081E090E00E94F900109217381092CB
S1132C3018381092193810921A3812C088EA9EEB8C
S1132C400E94E91988CC88EA9EEB0E94E919DECE3D
S1132C50811708F4D2CD5FCE211708F0BACDCDCDBF
S1132C60C553DF4FCDBFDEBFDF91CF911F910F91D1
S1132C70FF90EF90DF90CF90BF90AF909F908F9098
S1132C807F906F905F904F903F902F900895C0E495
S1132C90D1E00F2EF5E0AF2EF02D6894BB24B2F8EE
S1132CA0DD24D3946894CC24C1F800E014E0689443
S1132CB0EE24E6F8FF24F2F818828091303881116E
S1132CC003C086E00E9446010E94190180932E38B9
S1132CD090932F3880913038811184C00E946D0008
S1132CE00E94890083E090E00E94AC080E94E318EF
S1132CF00E943E0980930738909308380E945A092D
S1132D0080930538909306380E947509809304389F
S1132D100E947F0980930238909303380E949A0995
S1132D20809324380E94A209809323380E94AA0920
S1132D30809322380E94B209809321388DE190E07B
S1132D400E94AA1C823018F48093203802C010928A
S1132D5020388EE190E00E94AA1C823018F48093FF
S1132D601F3802C010921F388FE190E00E94AA1C05
S1132D708F3F19F080931E3802C010921E38D092F3
S1132D80253810921D3810921B3810921738109263
S1132D9018381092193810921A3810921638109266
S1132DA01238109213381092143810921538109269
S1132DB00E3810920F3810921038109211380E9469
S1132DC0B308882351F0C09230388C2D0E945E01E4
S1132DD08CE390E00E94F900F5C00E947A00B09262
S1132DE03038F0C0843009F048C080911D3881111A
S1132DF005C080911C38882309F4E4C02FED32E229
S1132E0082E0215030408040E1F700C00000F8012A
S1132E10808585FF04C0F701808581FDD3C01092B1
S1132E201D38D092163887E00E945E0120912E381A
S1132E3030912F38369527953695279536952795D1
S1132E40ABE7B4E10E944519969587958E50FFED46
S1132E5022E232E0F15020403040E1F700C00000AF
S1132E600E945E01D09230380E9482008091023824
S1132E70909103380E94F900A5C0813009F05FC029
S1132E800E94B308882389F0C09230380E94D6008B
S1132E908CE390E00E94F9001092173810921838D1
S1132EA01092193810921A388DC080911D388823D9
S1132EB011F10E94B610882389F0A09230380E9444
S1132EC0D60081E090E00E94F90010921738109229
S1132ED018381092193810921A3874C081E090E0B2
S1132EE00E94F9001092173810921838109219386D
S1132EF010921A3867C00E94C6088823E9F0D0925D
S1132F00253888E790E00E94F90080911738909165
S1132F101838A0911938B0911A3888589F4FAF4F7C
S1132F20BF4F8093173890931838A0931938B093F3
S1132F301A380E94D60046C00E94661243C08230EE
S1132F4041F50E94B308882329F088E097E00E94A5
S1132F50F90038C080911D38882359F00E94B610BA
S1132F60882339F0A092303881E090E00E94F90083
S1132F7029C080911638882339F0D092303881E006
S1132F8090E00E94F9001EC00E947A00B09230388E
S1132F9019C0833069F480911D38882399F0109208
S1132FA01D38A092303881E090E00E94F9000AC0F8
S1132FB0853041F40E94320C1092303881E090E068
S1132FC00E94F90010921B3810921D3810921C3880
S1132FD00E94E80071CEE0E0F8E0948195FFFDCF17
S1132FE08093020880E090E008951092E205A0E04A
S1132FF0B8E016968C911697806C16968C9316975B
S1133000E0E2F4E084E085838081846080838081D1
S1133010877F808381EA91E018968D939C9319971A
S1133020089581E08093E205A0E0B8E016968C91C3
S11330301697806C16968C931697E0E0F4E0118A4C
S1133040128A82E0858380818260808380818B7F85
S1133050808381EA91E018968D939C931997089543
S11330608091040888233CF4E0E0F8E080819481B6
S11330709923E4F3089580E00895E0E0F4E080818A
S11330808D7F808380818B7F808384E0818B828BA2
S11330900895E0E0F8E0848186FFFDCF848185FF18
S11330A0FACFE0E0F8E08481806484831682089596
S11330B0EF92FF920F931F93CF93DF93182F7B010F
S11330C0042FE90150E060E070E0C7010E94A419F8
S11330D00E94301890E0E0E0F8E08481882354F006
S11330E02197A9EFB0E01197F1F700C000002097F5
S11330F0A1F718C080818A3069F08D3059F021E041
S1133100290FD701A90FB11D8C93201710F090E05F
S113311001C0922F8113E1CFF701E90FF11D108255
S113312081E001C080E0DF91CF911F910F91FF906A
S1133130EF900895DF92EF92FF920F931F93CF9336
S1133140DF93D82EE62EEA01F22E882389F1422F4E
S113315050E060E070E0CE010E94A4190E94301893
S113316090E0E0E0F8E08481882364F001501109E4
S1133170A9EFB0E01197F1F700C0000001151105A7
S113318091F718C0808121E0290FDE01A90FB11D3C
S11331908C932F1510F090E001C0922F8E11E3CF85
S11331A0DA94D110E0CFC90FD11D188281E003C099
S11331B080E001C080E0DF91CF911F910F91FF90DB
S11331C0EF90DF900895E1E3F8E38BEE97E18087D9
S11331D091871286138682E0838314861586E09392
S11331E04138F09342380895DB018F939F930E94F6
S11331F05419BF91AF91A29F800D911DA39F900D73
S1133200B29F900D11240895A1E21A2EAA1BBB1B94
S1133210FD010DC0AA1FBB1FEE1FFF1FA217B3079E
S1133220E407F50720F0A21BB30BE40BF50B661FB4
S1133230771F881F991F1A9469F760957095809578
S113324090959B01AC01BD01CF010895052E97FB1C
S11332501EF400940E943D1957FD07D00E940419E2
S113326007FC03D04EF40C943D19509540953095CD
S113327021953F4F4F4F5F4F0895909580957095DE
S113328061957F4F8F4F9F4F0895A29FB001B39FC9
S1133290C001A39F700D811D1124911DB29F700D5B
S11332A0811D1124911D08950E944519A59F900D1B
S11332B0B49F900DA49F800D911D11240895FC01CD
S11332C088279927E89421912032E9F3293010F0D6
S11332D02E30C8F32B3241F02D3239F4689404C0F7
S11332E00E94CB19820F911D219120532A30C0F3E3
S11332F01EF4909581959F4F08951F93FC01992783
S11333008827BC01E89411911032E9F3193010F0C8
S11333101E30C8F31B3251F01D3249F4689406C0C4
S11333200E94B619610F711D811D911D11911053D9
S11333301A30B0F33EF490958095709561957F4F67
S11333408F4F9F4F1F910895DC0101C06D93415031
S11333505040E0F70895FC018191861721F08823FD
S1133360D9F7992708953197CF010895592F482FF8
S1133370372F262F660F771F881F991F660F771F19
S1133380881F991F620F731F841F951F660F771F75
S1133390881F991F08957AE0979F902D879F802D0D
S11333A0910D11240895A0E0B0E0E9EDF9E10C9449
S11333B0D61CAE014B5F5F4FFA0161917191AF0171
S11333C080914138909142380E94191AE2E00C949D
S11333D0EF1C0F931F93CF93DF93E0914138F0914B
S11333E04238238121FF1BC08C01D0E0C0E0F801EA
S11333F081918F016091413870914238DB011896B8
S1133400ED91FC911997882331F00995892B79F373
S1133410DFEFCFEFECCF8AE00995892B19F08FEF1E
S11334209FEF02C08D2F9C2FDF91CF911F910F91A1
S11334300895ABE0B0E0EFE1FAE10C94C61C6C0136
S11334407B018A01FC0116821782838181FFCCC132
S1133450CE0101963C01F6019381F70193FD85911C
S113346093FF81917F01882309F4BAC1853239F42D
S113347093FD859193FF81917F01853229F4B601F3
S113348090E00E94101CE7CF912C212C312CFFE1FD
S1133490F315D8F08B3279F038F4803279F0833236
S11334A0A1F4232D20611DC08D3261F0803369F4B5
S11334B0232D216016C0832D8260382EE32DE46015
S11334C03E2E2AC0F32DF8601DC037FC2DC020ED20
S11334D0280F2A3040F08E32B9F436FC81C1232DF6
S11334E02064322E19C036FE06C08AE0989E200D54
S11334F01124922E11C0EAE02E9E200D1124222EBA
S1133500F32DF0623F2E08C08C3621F4832D8068A1
S1133510382E02C0883641F4F70193FD859193FF5C
S113352081917F018111B3CF982F9F7D9554933062
S113353028F40C5F1F4F9FE399830DC0833631F04D
S1133540833771F0833509F059C021C0F8018081B7
S113355089830E5F1F4F88248394912C530113C0D9
S11335602801F2E04F0E511CF801A080B18036FE14
S113357003C0692D70E002C06FEF7FEFC5010E94A8
S1133580051C4C018201F32DFF773F2E16C0280144
S113359022E0420E511CF801A080B18036FE03C027
S11335A0692D70E002C06FEF7FEFC5010E94FA1B26
S11335B04C01F32DF0683F2E820133FC1BC0822D99
S11335C090E088169906B0F4B60180E290E00E947B
S11335D0101C2A94F4CFF50137FC859137FE8191B4
S11335E05F01B60190E00E94101C21102A9421E092
S11335F0821A91088114910471F7E8C0843611F09D
S1133600893641F5F80137FE07C0608171818281F6
S113361093810C5F1F4F08C060817181072E000CDD
S1133620880B990B0E5F1F4FF32DFF763F2E97FFEC
S113363009C090958095709561957F4F8F4F9F4FEE
S1133640F0683F2E2AE030E0A3010E944C1C882E33
S1133650861845C0853731F4232D2F7EB22E2AE0FB
S113366030E025C0932D997FB92E8F36C1F018F420
S1133670883579F0B5C0803719F0883721F0B0C0AB
S1133680E92FE061BE2EB4FE0DC0FB2DF460BF2E09
S113369009C034FE0AC0292F2660B22E06C028E0D5
S11336A030E005C020E130E002C020E132E0F80162
S11336B0B7FE07C060817181828193810C5F1F4FC7
S11336C006C06081718180E090E00E5F1F4FA3010E
S11336D00E944C1C882E8618FB2DFF773F2E36FE49
S11336E00DC0232D2E7FA22E891458F434FE0BC056
S11336F032FC09C0832D8E7EA82E05C0B82CA32CC5
S113370003C0B82C01C0B92CA4FE0FC0FE01E80D03
S1133710F11D8081803321F49A2D997EA92E09C050
S1133720A2FE06C0B394B39404C08A2D867809F02F
S1133730B394A3FC11C0A0FE06C0B21488F4280CF4
S1133740922C9B180EC0B21460F4B60180E290E093
S11337500E94101CB394F7CFB21418F42B1802C0B3
S1133760982C212CA4FE10C0B60180E390E00E94A6
S1133770101CA2FE17C0A1FC03C088E790E002C0A1
S113378088E590E0B6010CC08A2D867859F0A1FE38
S113379002C08BE201C080E2A7FC8DE2B60190E09A
S11337A00E94101C891438F4B60180E390E00E9452
S11337B0101C9A94F7CF8A94F301E80DF11D8081CF
S11337C0B60190E00E94101C8110F5CF222009F46C
S11337D042CEB60180E290E00E94101C2A94F6CFFB
S11337E0F6018681978102C08FEF9FEF2B96E2E16D
S11337F00C94DF1CFC010590615070400110D8F757
S1133800809590958E0F9F1F0895FC016150704024
S113381001900110D8F7809590958E0F9F1F089501
S11338200F931F93CF93DF93FB01238121FD03C0EB
S11338308FEF9FEF2CC022FF16C046815781248151
S113384035814217530744F4A081B1819D012F5F54
S11338503F4F208331838C93268137812F5F3F4FE5
S11338602683378314C08B01EC01FB010084F185AE
S1133870E02D0995892BE1F6D80116968D919C913E
S11338801797019616968D939C931797CE01DF9107
S1133890CF911F910F910895FA01AA27283051F171
S11338A0203181F1E8946F936E7F6E5F7F4F8F4F6D
S11338B09F4FAF4FB1E03ED0B4E03CD0670F781FCC
S11338C0891F9A1FA11D680F791F8A1F911DA11DB1
S11338D06A0F711D811D911DA11D20D009F46894EA
S11338E03F912AE0269F11243019305D3193DEF692
S11338F0CF010895462F4770405D4193B3E00FD048
S1133900C9F7F6CF462F4F70405D4A3318F0495D32
S113391031FD4052419302D0A9F7EACFB4E0A69515
S11339209795879577956795BA95C9F70097610537
S1133930710508959B01AC010A2E0694579547958D
S113394037952795BA95C9F7620F731F841F951F82
S1133950A01D089503D0808199270895FC01E050AB
S1133960FC4E0895262FAF93BF93E0E0F0E132813F
S113397031FDFDCFDC01A050BC4E2C932DE924BFBA
S113398023E020830196BF91AF9108952F923F9237
S11339904F925F926F927F928F929F92AF92BF925B
S11339A0CF92DF92EF92FF920F931F93CF93DF9307
S11339B0CDB7DEB7CA1BDB0BCDBFDEBF09942A88A7
S11339C0398848885F846E847D848C849B84AA842F
S11339D0B984C884DF80EE80FD800C811B81AA81BC
S11339E0B981CE0FD11DCDBFDEBFED010895F8948E
S10539F0FFCF03
S11339F2245051424155442C572C393630302A3404
S1133A02420D0A0024504D544B3331342C302C31A6
S1133A122C302C312C302C302C302C302C302C30BF
S1133A222C302C302C302C302C302C302C302C30B0
S1133A322C302A32380D0A0024504D544B33313481
S1133A422C302C312C302C302C302C302C302C308F
S1133A522C302C302C302C302C302C302C302C3080
S1133A622C302C302C302A32390D0A0024504D547B
S1133A724B3331342C302C302C302C312C302C3034
S1133A822C302C302C302C302C302C302C302C3050
S1133A922C302C302C302C302C302A32390D0A00A8
S1133AA25556733A2025752C20544F733A202575A8
S1133AB22F25752C204572726F72734F7247463AE6
S1133AC22025752C20545446463A2025750A0D00AB
S1133AD246697865733A20256C752C204176672EE9
S1133AE2205454463A20256C7520732C2041766765
S1133AF22E2048444F502028783130293A20256C12
S1133B02750A0D000A0D636F756E742C74696D6508
S1133B127374616D702C6C61742C6C6F6E0A0D0081
S1133B22256C752C256C752C256C642E2530356C12
S1133B32642C256C642E2530356C640A0D002A53DE
S1133B4254415254204D454D4F52592A0A0D0045B5
S1133B524D5054590A0D002A454E44204D454D4FAF
S1133B6252592A0A0D002D2D2D5449434B2D5441EF
S1133B72472D2D2D0A0D005625752C2049443A2037
S1133B82253032582D25303258253032582C2025F4
S1133B92756D562C2025303258620A0D0053455457
S1133BA254494E47533A0A0D2D204D696E20766FC3
S1133BB26C746167653A202575206D560A0D2D20B7
S1133BC24672657175656E63793A20257520730AAC
S1133BD20D2D204D696E2048444F502028783130F5
S1133BE2293A2025750A0D2D204163746976617482
S1133BF2696F6E2064656C61793A20257520730AB9
S1133C020D2D2047656F66656E63696E673A2025E0
S1133C12750A0D2D20427572737420647572617475
S1133C22696F6E3A20257520730A0D002D204E6FA0
S1133C322074696D650A0D002D2054696D653A2062
S1133C4225753A25303275202D2025753A253032D6
S1133C5275205554430A0D000A0D302052656164E3
S1133C62206D656D6F72790A0D312052657365742A
S1133C72206D656D6F72790A0D3220536574206D63
S1133C82696E2E20766F6C746167650A0D003320AD
S1133C92536574206672657175656E63790A0D34B5
S1133CA2205365742061636375726163790A0D350B
S1133CB2205365742061637469766174696F6E2040
S1133CC264656C61790A0D00362053657420746949
S1133CD26D65730A0D3720546F67676C65206765DD
S1133CE26F66656E63696E67204F4E2F4F46460AB4
S1133CF20D38205365742062757273742064757272
S1133D026174696F6E0A0D3920457869740A0D0071
S1133D124279652120536C656570696E6720756E02
S1133D2274696C2061637469766174696F6E2028AA
S1133D326279207072657373696E67206275747438
S1133D426F6E20616761696E290A0D002E2E2E2086
S1133D52004552524F520A0D00444F4E450A0D007F
S1133D62456E746572206D56202825752E2E257594
S1133D72293A0A0D0054494D454F55540A0D004F36
S1133D824B0A0D00456E74657220475053206672CB
S1133D92657175656E637920696E207320282575B7
S1133DA22E2E25752C20312E2E35203D2073746144
S1133DB2792D6F6E293A0A0D00456E746572206D75
S1133DC2696E2048444F50207820313020282575D0
S1133DD22E2E2575293A0A0D0054542074726965F1
S1133DE27320746F20616368696576652048444F67
S1133DF2502077697468696E20257520730A0D0056
S1133E02456E7465722061637469766174696F6E5C
S1133E122064656C617920696E2073202825752ED3
S1133E222E2575293A0A0D00456E74657220555483
S1133E32432074696D6520746F207475726E204F0F
S1133E424E2028666F726D61743A2048484D4D29A0
S1133E523A0A0D00456E7465722055544320746904
S1133E626D6520746F207475726E204F464620284B
S1133E72666F726D61743A2048484D4D293A0A0DB5
S1133E8200456E746572206475726174696F6E2088
S1133E9228302D3235302073293A0A0D00256C75ED
S1133EA22025730A0D00245051464C502C572C31B6
S10A3EB22C302A32310D000F
S10D3EB906BA58021E3C00B80B01C3
S9030000FC
